{
  "_format": "hh-sol-artifact-1",
  "contractName": "MockToken",
  "sourceName": "contracts/MockToken.sol",
  "abi": [
    {
      "inputs": [],
      "stateMutability": "nonpayable",
      "type": "constructor"
    },
    {
      "inputs": [
        {
          "internalType": "address",
          "name": "spender",
          "type": "address"
        },
        {
          "internalType": "uint256",
          "name": "allowance",
          "type": "uint256"
        },
        {
          "internalType": "uint256",
          "name": "needed",
          "type": "uint256"
        }
      ],
      "name": "ERC20InsufficientAllowance",
      "type": "error"
    },
    {
      "inputs": [
        {
          "internalType": "address",
          "name": "sender",
          "type": "address"
        },
        {
          "internalType": "uint256",
          "name": "balance",
          "type": "uint256"
        },
        {
          "internalType": "uint256",
          "name": "needed",
          "type": "uint256"
        }
      ],
      "name": "ERC20InsufficientBalance",
      "type": "error"
    },
    {
      "inputs": [
        {
          "internalType": "address",
          "name": "approver",
          "type": "address"
        }
      ],
      "name": "ERC20InvalidApprover",
      "type": "error"
    },
    {
      "inputs": [
        {
          "internalType": "address",
          "name": "receiver",
          "type": "address"
        }
      ],
      "name": "ERC20InvalidReceiver",
      "type": "error"
    },
    {
      "inputs": [
        {
          "internalType": "address",
          "name": "sender",
          "type": "address"
        }
      ],
      "name": "ERC20InvalidSender",
      "type": "error"
    },
    {
      "inputs": [
        {
          "internalType": "address",
          "name": "spender",
          "type": "address"
        }
      ],
      "name": "ERC20InvalidSpender",
      "type": "error"
    },
    {
      "anonymous": false,
      "inputs": [
        {
          "indexed": true,
          "internalType": "address",
          "name": "owner",
          "type": "address"
        },
        {
          "indexed": true,
          "internalType": "address",
          "name": "spender",
          "type": "address"
        },
        {
          "indexed": false,
          "internalType": "uint256",
          "name": "value",
          "type": "uint256"
        }
      ],
      "name": "Approval",
      "type": "event"
    },
    {
      "anonymous": false,
      "inputs": [
        {
          "indexed": true,
          "internalType": "address",
          "name": "from",
          "type": "address"
        },
        {
          "indexed": true,
          "internalType": "address",
          "name": "to",
          "type": "address"
        },
        {
          "indexed": false,
          "internalType": "uint256",
          "name": "value",
          "type": "uint256"
        }
      ],
      "name": "Transfer",
      "type": "event"
    },
    {
      "inputs": [
        {
          "internalType": "address",
          "name": "owner",
          "type": "address"
        },
        {
          "internalType": "address",
          "name": "spender",
          "type": "address"
        }
      ],
      "name": "allowance",
      "outputs": [
        {
          "internalType": "uint256",
          "name": "",
          "type": "uint256"
        }
      ],
      "stateMutability": "view",
      "type": "function"
    },
    {
      "inputs": [
        {
          "internalType": "address",
          "name": "spender",
          "type": "address"
        },
        {
          "internalType": "uint256",
          "name": "value",
          "type": "uint256"
        }
      ],
      "name": "approve",
      "outputs": [
        {
          "internalType": "bool",
          "name": "",
          "type": "bool"
        }
      ],
      "stateMutability": "nonpayable",
      "type": "function"
    },
    {
      "inputs": [
        {
          "internalType": "address",
          "name": "account",
          "type": "address"
        }
      ],
      "name": "balanceOf",
      "outputs": [
        {
          "internalType": "uint256",
          "name": "",
          "type": "uint256"
        }
      ],
      "stateMutability": "view",
      "type": "function"
    },
    {
      "inputs": [],
      "name": "decimals",
      "outputs": [
        {
          "internalType": "uint8",
          "name": "",
          "type": "uint8"
        }
      ],
      "stateMutability": "view",
      "type": "function"
    },
    {
      "inputs": [],
      "name": "mintFree",
      "outputs": [],
      "stateMutability": "nonpayable",
      "type": "function"
    },
    {
      "inputs": [],
      "name": "name",
      "outputs": [
        {
          "internalType": "string",
          "name": "",
          "type": "string"
        }
      ],
      "stateMutability": "view",
      "type": "function"
    },
    {
      "inputs": [],
      "name": "symbol",
      "outputs": [
        {
          "internalType": "string",
          "name": "",
          "type": "string"
        }
      ],
      "stateMutability": "view",
      "type": "function"
    },
    {
      "inputs": [],
      "name": "totalSupply",
      "outputs": [
        {
          "internalType": "uint256",
          "name": "",
          "type": "uint256"
        }
      ],
      "stateMutability": "view",
      "type": "function"
    },
    {
      "inputs": [
        {
          "internalType": "address",
          "name": "to",
          "type": "address"
        },
        {
          "internalType": "uint256",
          "name": "value",
          "type": "uint256"
        }
      ],
      "name": "transfer",
      "outputs": [
        {
          "internalType": "bool",
          "name": "",
          "type": "bool"
        }
      ],
      "stateMutability": "nonpayable",
      "type": "function"
    },
    {
      "inputs": [
        {
          "internalType": "address",
          "name": "from",
          "type": "address"
        },
        {
          "internalType": "address",
          "name": "to",
          "type": "address"
        },
        {
          "internalType": "uint256",
          "name": "value",
          "type": "uint256"
        }
      ],
      "name": "transferFrom",
      "outputs": [
        {
          "internalType": "bool",
          "name": "",
          "type": "bool"
        }
      ],
      "stateMutability": "nonpayable",
      "type": "function"
    }
  ],
  "bytecode": "0x60806040523480156200001157600080fd5b506040518060400160405280600d81526020017f4d6f636b204f70656e776f726b000000000000000000000000000000000000008152506040518060400160405280600481526020017f4d4f434b0000000000000000000000000000000000000000000000000000000081525081600390816200008f9190620005fd565b508060049081620000a19190620005fd565b505050620000c03369d3c21bcecceda1000000620000c660201b60201c565b6200081b565b600073ffffffffffffffffffffffffffffffffffffffff168273ffffffffffffffffffffffffffffffffffffffff16036200013b5760006040517fec442f0500000000000000000000000000000000000000000000000000000000815260040162000132919062000729565b60405180910390fd5b6200014f600083836200015360201b60201c565b5050565b600073ffffffffffffffffffffffffffffffffffffffff168373ffffffffffffffffffffffffffffffffffffffff1603620001a95780600260008282546200019c919062000775565b925050819055506200027f565b60008060008573ffffffffffffffffffffffffffffffffffffffff1673ffffffffffffffffffffffffffffffffffffffff1681526020019081526020016000205490508181101562000238578381836040517fe450d38c0000000000000000000000000000000000000000000000000000000081526004016200022f93929190620007c1565b60405180910390fd5b8181036000808673ffffffffffffffffffffffffffffffffffffffff1673ffffffffffffffffffffffffffffffffffffffff16815260200190815260200160002081905550505b600073ffffffffffffffffffffffffffffffffffffffff168273ffffffffffffffffffffffffffffffffffffffff1603620002ca578060026000828254039250508190555062000317565b806000808473ffffffffffffffffffffffffffffffffffffffff1673ffffffffffffffffffffffffffffffffffffffff168152602001908152602001600020600082825401925050819055505b8173ffffffffffffffffffffffffffffffffffffffff168373ffffffffffffffffffffffffffffffffffffffff167fddf252ad1be2c89b69c2b068fc378daa952ba7f163c4a11628f55a4df523b3ef83604051620003769190620007fe565b60405180910390a3505050565b600081519050919050565b7f4e487b7100000000000000000000000000000000000000000000000000000000600052604160045260246000fd5b7f4e487b7100000000000000000000000000000000000000000000000000000000600052602260045260246000fd5b600060028204905060018216806200040557607f821691505b6020821081036200041b576200041a620003bd565b5b50919050565b60008190508160005260206000209050919050565b60006020601f8301049050919050565b600082821b905092915050565b600060088302620004857fffffffffffffffffffffffffffffffffffffffffffffffffffffffffffffffff8262000446565b62000491868362000446565b95508019841693508086168417925050509392505050565b6000819050919050565b6000819050919050565b6000620004de620004d8620004d284620004a9565b620004b3565b620004a9565b9050919050565b6000819050919050565b620004fa83620004bd565b620005126200050982620004e5565b84845462000453565b825550505050565b600090565b620005296200051a565b62000536818484620004ef565b505050565b5b818110156200055e57620005526000826200051f565b6001810190506200053c565b5050565b601f821115620005ad57620005778162000421565b620005828462000436565b8101602085101562000592578190505b620005aa620005a18562000436565b8301826200053b565b50505b505050565b600082821c905092915050565b6000620005d260001984600802620005b2565b1980831691505092915050565b6000620005ed8383620005bf565b9150826002028217905092915050565b620006088262000383565b67ffffffffffffffff8111156200062457620006236200038e565b5b620006308254620003ec565b6200063d82828562000562565b600060209050601f83116001811462000675576000841562000660578287015190505b6200066c8582620005df565b865550620006dc565b601f198416620006858662000421565b60005b82811015620006af5784890151825560018201915060208501945060208101905062000688565b86831015620006cf5784890151620006cb601f891682620005bf565b8355505b6001600288020188555050505b505050505050565b600073ffffffffffffffffffffffffffffffffffffffff82169050919050565b60006200071182620006e4565b9050919050565b620007238162000704565b82525050565b600060208201905062000740600083018462000718565b92915050565b7f4e487b7100000000000000000000000000000000000000000000000000000000600052601160045260246000fd5b60006200078282620004a9565b91506200078f83620004a9565b9250828201905080821115620007aa57620007a962000746565b5b92915050565b620007bb81620004a9565b82525050565b6000606082019050620007d8600083018662000718565b620007e76020830185620007b0565b620007f66040830184620007b0565b949350505050565b6000602082019050620008156000830184620007b0565b92915050565b610f02806200082b6000396000f3fe608060405234801561001057600080fd5b506004361061009e5760003560e01c806370a082311161006657806370a082311461015d5780638ab534471461018d57806395d89b4114610197578063a9059cbb146101b5578063dd62ed3e146101e55761009e565b806306fdde03146100a3578063095ea7b3146100c157806318160ddd146100f157806323b872dd1461010f578063313ce5671461013f575b600080fd5b6100ab610215565b6040516100b89190610b56565b60405180910390f35b6100db60048036038101906100d69190610c11565b6102a7565b6040516100e89190610c6c565b60405180910390f35b6100f96102ca565b6040516101069190610c96565b60405180910390f35b61012960048036038101906101249190610cb1565b6102d4565b6040516101369190610c6c565b60405180910390f35b610147610303565b6040516101549190610d20565b60405180910390f35b61017760048036038101906101729190610d3b565b61030c565b6040516101849190610c96565b60405180910390f35b610195610354565b005b61019f610369565b6040516101ac9190610b56565b60405180910390f35b6101cf60048036038101906101ca9190610c11565b6103fb565b6040516101dc9190610c6c565b60405180910390f35b6101ff60048036038101906101fa9190610d68565b61041e565b60405161020c9190610c96565b60405180910390f35b60606003805461022490610dd7565b80601f016020809104026020016040519081016040528092919081815260200182805461025090610dd7565b801561029d5780601f106102725761010080835404028352916020019161029d565b820191906000526020600020905b81548152906001019060200180831161028057829003601f168201915b5050505050905090565b6000806102b26104a5565b90506102bf8185856104ad565b600191505092915050565b6000600254905090565b6000806102df6104a5565b90506102ec8582856104bf565b6102f7858585610554565b60019150509392505050565b60006012905090565b60008060008373ffffffffffffffffffffffffffffffffffffffff1673ffffffffffffffffffffffffffffffffffffffff168152602001908152602001600020549050919050565b61036733683635c9adc5dea00000610648565b565b60606004805461037890610dd7565b80601f01602080910402602001604051908101604052809291908181526020018280546103a490610dd7565b80156103f15780601f106103c6576101008083540402835291602001916103f1565b820191906000526020600020905b8154815290600101906020018083116103d457829003601f168201915b5050505050905090565b6000806104066104a5565b9050610413818585610554565b600191505092915050565b6000600160008473ffffffffffffffffffffffffffffffffffffffff1673ffffffffffffffffffffffffffffffffffffffff16815260200190815260200160002060008373ffffffffffffffffffffffffffffffffffffffff1673ffffffffffffffffffffffffffffffffffffffff16815260200190815260200160002054905092915050565b600033905090565b6104ba83838360016106ca565b505050565b60006104cb848461041e565b90507fffffffffffffffffffffffffffffffffffffffffffffffffffffffffffffffff81101561054e578181101561053e578281836040517ffb8f41b200000000000000000000000000000000000000000000000000000000815260040161053593929190610e17565b60405180910390fd5b61054d848484840360006106ca565b5b50505050565b600073ffffffffffffffffffffffffffffffffffffffff168373ffffffffffffffffffffffffffffffffffffffff16036105c65760006040517f96c6fd1e0000000000000000000000000000000000000000000000000000000081526004016105bd9190610e4e565b60405180910390fd5b600073ffffffffffffffffffffffffffffffffffffffff168273ffffffffffffffffffffffffffffffffffffffff16036106385760006040517fec442f0500000000000000000000000000000000000000000000000000000000815260040161062f9190610e4e565b60405180910390fd5b6106438383836108a1565b505050565b600073ffffffffffffffffffffffffffffffffffffffff168273ffffffffffffffffffffffffffffffffffffffff16036106ba5760006040517fec442f050000000000000000000000000000000000000000000000000000000081526004016106b19190610e4e565b60405180910390fd5b6106c6600083836108a1565b5050565b600073ffffffffffffffffffffffffffffffffffffffff168473ffffffffffffffffffffffffffffffffffffffff160361073c5760006040517fe602df050000000000000000000000000000000000000000000000000000000081526004016107339190610e4e565b60405180910390fd5b600073ffffffffffffffffffffffffffffffffffffffff168373ffffffffffffffffffffffffffffffffffffffff16036107ae5760006040517f94280d620000000000000000000000000000000000000000000000000000000081526004016107a59190610e4e565b60405180910390fd5b81600160008673ffffffffffffffffffffffffffffffffffffffff1673ffffffffffffffffffffffffffffffffffffffff16815260200190815260200160002060008573ffffffffffffffffffffffffffffffffffffffff1673ffffffffffffffffffffffffffffffffffffffff16815260200190815260200160002081905550801561089b578273ffffffffffffffffffffffffffffffffffffffff168473ffffffffffffffffffffffffffffffffffffffff167f8c5be1e5ebec7d5bd14f71427d1e84f3dd0314c0f7b2291e5b200ac8c7c3b925846040516108929190610c96565b60405180910390a35b50505050565b600073ffffffffffffffffffffffffffffffffffffffff168373ffffffffffffffffffffffffffffffffffffffff16036108f35780600260008282546108e79190610e98565b925050819055506109c6565b60008060008573ffffffffffffffffffffffffffffffffffffffff1673ffffffffffffffffffffffffffffffffffffffff1681526020019081526020016000205490508181101561097f578381836040517fe450d38c00000000000000000000000000000000000000000000000000000000815260040161097693929190610e17565b60405180910390fd5b8181036000808673ffffffffffffffffffffffffffffffffffffffff1673ffffffffffffffffffffffffffffffffffffffff16815260200190815260200160002081905550505b600073ffffffffffffffffffffffffffffffffffffffff168273ffffffffffffffffffffffffffffffffffffffff1603610a0f5780600260008282540392505081905550610a5c565b806000808473ffffffffffffffffffffffffffffffffffffffff1673ffffffffffffffffffffffffffffffffffffffff168152602001908152602001600020600082825401925050819055505b8173ffffffffffffffffffffffffffffffffffffffff168373ffffffffffffffffffffffffffffffffffffffff167fddf252ad1be2c89b69c2b068fc378daa952ba7f163c4a11628f55a4df523b3ef83604051610ab99190610c96565b60405180910390a3505050565b600081519050919050565b600082825260208201905092915050565b60005b83811015610b00578082015181840152602081019050610ae5565b60008484015250505050565b6000601f19601f8301169050919050565b6000610b2882610ac6565b610b328185610ad1565b9350610b42818560208601610ae2565b610b4b81610b0c565b840191505092915050565b60006020820190508181036000830152610b708184610b1d565b905092915050565b600080fd5b600073ffffffffffffffffffffffffffffffffffffffff82169050919050565b6000610ba882610b7d565b9050919050565b610bb881610b9d565b8114610bc357600080fd5b50565b600081359050610bd581610baf565b92915050565b6000819050919050565b610bee81610bdb565b8114610bf957600080fd5b50565b600081359050610c0b81610be5565b92915050565b60008060408385031215610c2857610c27610b78565b5b6000610c3685828601610bc6565b9250506020610c4785828601610bfc565b9150509250929050565b60008115159050919050565b610c6681610c51565b82525050565b6000602082019050610c816000830184610c5d565b92915050565b610c9081610bdb565b82525050565b6000602082019050610cab6000830184610c87565b92915050565b600080600060608486031215610cca57610cc9610b78565b5b6000610cd886828701610bc6565b9350506020610ce986828701610bc6565b9250506040610cfa86828701610bfc565b9150509250925092565b600060ff82169050919050565b610d1a81610d04565b82525050565b6000602082019050610d356000830184610d11565b92915050565b600060208284031215610d5157610d50610b78565b5b6000610d5f84828501610bc6565b91505092915050565b60008060408385031215610d7f57610d7e610b78565b5b6000610d8d85828601610bc6565b9250506020610d9e85828601610bc6565b9150509250929050565b7f4e487b7100000000000000000000000000000000000000000000000000000000600052602260045260246000fd5b60006002820490506001821680610def57607f821691505b602082108103610e0257610e01610da8565b5b50919050565b610e1181610b9d565b82525050565b6000606082019050610e2c6000830186610e08565b610e396020830185610c87565b610e466040830184610c87565b949350505050565b6000602082019050610e636000830184610e08565b92915050565b7f4e487b7100000000000000000000000000000000000000000000000000000000600052601160045260246000fd5b6000610ea382610bdb565b9150610eae83610bdb565b9250828201905080821115610ec657610ec5610e69565b5b9291505056fea2646970667358221220660784b4b60d9de398f78d617c4d463d46a98448e506eb019738fc274f5a987e64736f6c63430008140033",
  "linkReferences": {},
  "deployedLinkReferences": {}
}